:020000040800F2
:10000000002800204902000899020008990200080F
:1000100099020008990200089902000800000000F7
:10002000000000000000000000000000990200082D
:1000300099020008000000009902000899020008D7
:100040009902000899020008990200089902000824
:1000500099020008990200084D0900086909000882
:1000600085090008A1090008BD09000899020008D7
:1000700099020008990200089902000899020008F4
:1000800099020008990200089902000899020008E4
:10009000990200089902000899020008D90900088D
:1000A00099020008990200089902000899020008C4
:1000B00099020008990200089902000899020008B4
:1000C00099020008990200089902000899020008A4
:1000D0009902000899020008990200089902000894
:1000E000650A000899020008000000009902000853
:1000F0009902000899020008990200089902000874
:100100009902000899020008990200089902000863
:100110009902000899020008990200089902000853
:100120009902000899020008990200089902000843
:1001300010B5054C237833B9044B13B10448AFF321
:1001400000800123237010BD00000020000000008B
:10015000800D000808B5034B1BB103490348AFF3FA
:10016000008008BD0000000004000020800D000891
:1001700080B485B000AF78600023FB600BE0002303
:10018000BB6002E0BB680133BB60BB68FE2BF9D9E2
:10019000FB680133FB60FA687B689A42EFD300BFCB
:1001A0001437BD4680BC704780B500AF054B0122B7
:1001B0001A60054800F0DAF94FF47A70FFF7D8FFBB
:1001C00000BF80BD1C000020980D000880B586B0DF
:1001D00000AF194B9B69184A43F004039361164B17
:1001E0009B69154A43F008039361134B9B69124ABC
:1001F00043F00103936100F05BF900F017F90F4A37
:100200003B1D07CA83E8070000233B740C4B7B614E
:1002100001237B743B1D184600F08CFB094B012227
:100220001A60084B1B68002BFBD000F0FFF8054B51
:1002300000221A60F5E700BF00100240B40D00086C
:10024000A90100081C0000200D488546AFF300807E
:100250000C480D490D4A002302E0D458C450043321
:10026000C4188C42F9D30A4A0A4C002301E01360F7
:100270000432A242FBD300F05FFDFFF7A7FFFEE7C9
:10028000002800200000002000000020C80D000809
:100290000000002060000020FEE780B485B000AFC1
:1002A00078600023FB600BE00023BB6002E0BB68CA
:1002B0000133BB60BB68FE2BF9D9FB680133FB60DF
:1002C000FA687B689A42EFD300BF1437BD4680BC02
:1002D0007047000080B500AF524B4FF480721A8017
:1002E000504B04229A704F4B0122DA704D494E4810
:1002F00000F07DFC4B4B4FF400721A80494B0422F6
:100300009A70484B0122DA704649474800F06FFC6A
:10031000444B4FF480621A80424B04229A70414B46
:100320000122DA703F49404800F061FC3D4B012258
:100330001A803C4B04229A703A4B0122DA703949F8
:10034000394800F054FC374B02221A80354B042206
:100350009A70344B0122DA703249334800F047FC7E
:10036000304B04221A802F4B04229A702D4B01220D
:10037000DA702C492C4800F03AFC2A4B08221A80EB
:10038000284B04229A70274B0122DA70254926480F
:1003900000F02DFC234B10221A80224B04229A706D
:1003A000204B0122DA701F491F4800F020FC1D4B32
:1003B00020221A801B4B04229A701A4B0122DA70F9
:1003C0001849194800F013FC164B40221A80154BAF
:1003D00004229A70134B0122DA701249124800F07D
:1003E00006FC104B80221A800E4B04229A700D4B93
:1003F0000122DA700B490C4800F0F9FB00224FF49F
:100400008061094800F072FC00224FF480710648B8
:1004100000F06CFC00224FF40071034800F066FC11
:1004200000BF80BD200000200008014080B500AF63
:10043000012000F057F800BF80BD000080B500AF7C
:1004400001224FF48061074800F050FC3220FFF792
:1004500024FF00224FF48061024800F047FC00BFF7
:1004600080BD00BF0008014080B582B000AF0346E8
:100470000A46FB711346BB71FB79012B08D1BB798E
:100480000F2B05D8BB79803BDBB2184600F02AF869
:10049000FB79022B08D1BB790F2B05D8BB79403BE8
:1004A000DBB2184600F01EF800BF0837BD4680BD1D
:1004B00080B500AF1420FFF7F0FEFFF70BFF0F2011
:1004C000FFF7EBFEFFF7B2FF382000F00BF8062035
:1004D00000F008F8802000F005F80F2000F002F886
:1004E00000BF80BD80B582B000AF0346FB71FB79D1
:1004F0009BB219460B4800F010FC00224FF400712B
:10050000084800F0F3FB00224FF48071054800F02A
:10051000EDFB0120FFF7C1FEFFF790FF00BF08379A
:10052000BD4680BD0008014080B582B000AF0346E3
:10053000FB71FB799BB219460B4800F0EEFB0022E1
:100540004FF40071084800F0D1FB01224FF4807194
:10055000054800F0CBFB0120FFF79FFEFFF76EFF81
:1005600000BF0837BD4680BD0008014080B584B09B
:1005700000AF78600023FB601CE0FB680133FB6088
:100580007B685A1C7A601B781846FFF7CDFFFB6822
:10059000102B04D100210220FFF766FF0AE0FB6860
:1005A000202B07D1FFF742FF00210120FFF75CFF5E
:1005B0000023FB607B681B78002BDED100BF103767
:1005C000BD4680BD80B483B000AF0346FB80FB888E
:1005D0000F2B54D801A252F823F000BF1D060008CB
:1005E0002B060008390600084706000855060008D3
:1005F0006306000863060008630600086306000837
:1006000063060008710600087106000871060008FC
:100610007106000871060008710600081A4B1B6875
:10062000194A43F04003136029E0174B1B68164A30
:1006300043F08003136022E0134B1B68124A43F41B
:10064000807313601BE0104B1B680F4A43F4007368
:10065000136014E00C4B1B680B4A43F48063136077
:100660000DE0094B1B68084A43F40003136006E0E1
:10067000064B1B68054A43F48073136000BF00BF3C
:100680000C37BD4680BC704700E100E004E100E0AB
:1006900080B483B000AF0346FB80FB880F2B54D897
:1006A00001A252F823F000BFE9060008F70600088F
:1006B0000507000813070008210700082F07000896
:1006C0002F0700082F0700082F0700082F07000832
:1006D0003D0700083D0700083D0700083D070008EA
:1006E0003D0700083D0700081A4B1B68194A43F0F4
:1006F0004003136029E0174B1B68164A43F0800340
:10070000136022E0134B1B68124A43F4807313609A
:100710001BE0104B1B680F4A43F40073136014E096
:100720000C4B1B680B4A43F4806313600DE0094BCC
:100730001B68084A43F40003136006E0064B1B687D
:10074000054A43F48073136000BF00BF0C37BD46F9
:1007500080BC704780E100E084E100E080B584B0B7
:1007600000AF78607B681B893B810123BB727B688B
:100770005B6807F108021146184600F038FA7B68FA
:100780001B889B089BB2FB737B681B88DBB203F062
:100790000303DBB29B00BB735F4AFB7B023352F85F
:1007A0002320BB7B0F2101FA03F3DB4318465A4990
:1007B000FB7B0240023341F82320574AFB7B023384
:1007C00052F823207B685B6854498B4216D07B68C3
:1007D0005B6853498B420FD07B685B6851498B4201
:1007E00008D07B685B6850498B4201D1032306E047
:1007F000002304E0022302E0012300E00023B97B90
:100800008B4018464449FB7B0243023341F82320C6
:10081000464B9B687A681288114601228A40D2436F
:100820001146424A0B409360404BDB687A6812885D
:10083000114601228A40D24311463C4A0B40D36004
:100840007B681B7B002B0BD1384B9B687A68128826
:10085000114601228A401146344A0B43936029E035
:100860007B681B7B012B0BD1304BDB687A681288CD
:10087000114601228A4011462C4A0B43D36019E0ED
:100880007B681B7B022B15D1284B9B687A681288EA
:10089000114601228A401146244A0B439360234BA0
:1008A000DB687A681288114601228A4011461F4A85
:1008B0000B43D3607B681B8819467B681B691C4A05
:1008C00042F821307B685B7B012B10D1174B1B68F2
:1008D0007A681288114601228A401146134A0B4356
:1008E00013607B681B881846FFF76CFE10E00F4B07
:1008F0001B687A681288114601228A40D243114649
:100900000A4A0B4013607B681B881846FFF7C0FE3D
:1009100000BF1037BD4680BD000001400008014007
:10092000000C01400010014000140140000401408F
:100930002400002080B582B000AF78607868FFF7AF
:100940000DFF00BF0837BD4680BD000080B500AF79
:10095000034B01225A61034B1B68984700BF80BDBF
:10096000000401402400002080B500AF034B0222A8
:100970005A61034B5B68984700BF80BD000401408B
:100980002400002080B500AF034B04225A61034BC2
:100990009B68984700BF80BD0004014024000020F0
:1009A00080B500AF034B08225A61034BDB689847C0
:1009B00000BF80BD000401402400002080B500AFCE
:1009C000034B10225A61034B1B69984700BF80BD3F
:1009D000000401402400002080B500AF1F4B5B697C
:1009E00003F02003002B05D01C4B20225A611C4B26
:1009F0005B699847194B5B6903F04003002B05D0F6
:100A0000164B40225A61164B9B699847134B5B6902
:100A100003F08003002B05D0104B80225A61104B4D
:100A2000DB6998470D4B5B6903F48073002B06D09C
:100A30000A4B4FF480725A61094B1B6A9847074B67
:100A40005B6903F40073002B06D0044B4FF4007273
:100A50005A61034B5B6A984700BF80BD00040140A8
:100A60002400002080B500AF2D4B5B6903F4806348
:100A7000002B08D02A4B5B69294A43F480635361F9
:100A8000284B9B6A9847264B5B6903F40063002B55
:100A900008D0234B5B69224A43F400635361214B26
:100AA000DB6A98471E4B5B6903F48053002B08D028
:100AB0001B4B5B691A4A43F480535361194B1B6B00
:100AC0009847174B5B6903F40053002B08D0144B75
:100AD0005B69134A43F400535361124B5B6B9847B5
:100AE0000F4B5B6903F48043002B08D00C4B5B6910
:100AF0000B4A43F4804353610A4B9B6B9847084B66
:100B00005B6903F48043002B08D0054B5B69044A02
:100B100043F400435361034BDB6B984700BF80BD38
:100B2000000401402400002080B483B000AF0346DD
:100B3000FB80FB88802B42D0802B11DC082B36D029
:100B4000082B06DC022B2ED0042B2ED0012B28D014
:100B500047E0202B2FD0402B2FD0102B29D040E066
:100B6000B3F5006F33D0B3F5006F09DCB3F5007F48
:100B700029D0B3F5806F28D0B3F5807F21D030E045
:100B8000B3F5005F27D0B3F5005F03DCB3F5805FFA
:100B90001FD026E0B3F5804F1FD0B3F5004F1ED015
:100BA0001FE000231EE004231CE008231AE00C23AE
:100BB00018E0102316E0142314E0182312E01C237D
:100BC00010E000230EE004230CE008230AE00C23CD
:100BD00008E0102306E0142304E0182302E01C239D
:100BE00000E0002318460C37BD4680BC704790B526
:100BF00085B000AF786039600023BB600023FB73D1
:100C00003B681B88FF2B01D87B6801E07B680433BD
:100C1000BB603B681B881846FFF786FF03461A46F1
:100C20000F239340DA43BB681B681A40BB681A6005
:100C30003B689B78072B0BD03B689B78062B07D033
:100C40003B689B78052B03D03B689B78042B0ED127
:100C50003B689B78043B9B005AB23B68DB785BB2F5
:100C600013435BB2DBB203F00F03FB732CE03B6872
:100C70009B78012B03D03B689B78002B07D13B6806
:100C80009B789B00DBB203F00F03FB731CE03B6817
:100C90009B78082B02D10423FB7315E00823FB7318
:100CA0003B689B78022B07D17B68DB683A68128827
:100CB0001A437B68DA6007E07B68DB683A68128871
:100CC000D2431A407B68DA60FC7B3B681B8818467D
:100CD000FFF72AFF034604FA03F2BB681B681A43B6
:100CE000BB681A6000BF1437BD4690BD80B483B0A6
:100CF00000AF78600B467B8013467B707B78002BBF
:100D000003D07A887B681A6102E07A887B685A612E
:100D100000BF0C37BD4680BC704780B483B000AFC5
:100D200078600B467B807A887B68DA6000BF0C377E
:100D3000BD4680BC7047000070B500250C4E0D4CC0
:100D4000A41BA410A54209D100F01AF800250A4EF0
:100D50000A4CA41BA410A54205D170BD56F825303D
:100D600098470135EEE756F8253098470135F2E708
:100D7000C00D0008C00D0008C00D0008C40D00081B
:100D8000F8B500BFF8BC08BC9E467047F8B500BF78
:080D9000F8BC08BC9E46704748
:100D98004952512045585449392069732048617097
:100DA80070656E6564205F7C2D20200009000000BE
:080DB800000C014000021700CD
:040DC00055010008D1
:040DC40031010008F1
:0400000508000249A4
:00000001FF
